:020000040800F2
:10000000600500209D010008F51A0008F50E0008A3
:10001000F11A0008A9020008E92000080000000009
:10002000000000000000000000000000811B00082C
:10003000AD02000800000000F71A0008291C0008A3
:10004000B7010008B7010008B7010008B7010008B0
:10005000B7010008B7010008B7010008B7010008A0
:10006000B7010008B7010008B7010008B701000890
:10007000B7010008B7010008B7010008B701000880
:10008000B7010008B7010008B7010008B701000870
:10009000B7010008B7010008B7010008B701000860
:1000A000B7010008B7010008B7010008B701000850
:1000B000B7010008B7010008B7010008B701000840
:1000C000B7010008B7010008B7010008B701000830
:1000D000B7010008B7010008B7010008B701000820
:1000E000B7010008B7010008B7010008B701000810
:1000F000B7010008B7010008B7010008B701000800
:10010000B7010008B7010008B7010008B7010008EF
:10011000B7010008B7010008B7010008B7010008DF
:10012000B7010008B7010008B7010008B7010008CF
:10013000B7010008B7010008B7010008B7010008BF
:10014000B7010008B7010008B7010008B7010008AF
:10015000B7010008B7010008B7010008B70100089F
:10016000B7010008B7010008B7010008B70100088F
:10017000B7010008B7010008B7010008000000003F
:10018000B7010008B7010008DFF80CD000F07AF8DA
:1001900000480047452100086005002006488047C8
:1001A00006480047FEE7FEE7FEE7FEE7FEE7FEE75C
:1001B000FEE7FEE7FEE7FEE7E51C00088901000810
:1001C0002DE9F05F0546002092469B46884606468C
:1001D000814640241BE0284641464746224600F01F
:1001E00041F853465A46C01A914110D31146184659
:1001F000224600F028F82D1A67EB01084F462246E8
:100200000120002100F01FF817EB00094E41201ECD
:10021000A4F10104DFDC484631462A464346BDE8E6
:10022000F09FD2B201E000F8012B491EFBD27047CB
:100230000022F6E710B513460A4604461946FFF7B2
:10024000F0FF204610BD202A04DB203A00FA02F11C
:10025000002070479140C2F1200320FA03F31943B4
:1002600090407047202A04DB203A21FA02F0002156
:10027000704721FA02F3D040C2F1200291400843B6
:1002800019467047064C074D06E0E06840F0010350
:1002900094E8070098471034AC42F6D3FFF778FF94
:1002A000B4800008D480000800BFFEE770477047A4
:1002B00070B5044600F01EF906462546681C10B1CC
:1002C00004480078054400BF00F014F9801BA842E0
:1002D000FAD370BD4C000020F8B502460B4600254D
:1002E000002400200021DCE0012606FA01F51E684A
:1002F00006EA0504AC4273D15E68012E08D05E6840
:10030000022E05D05E68112E02D05E68122E13D127
:1003100090684F000326BE40B0434F00DE68BE40E9
:1003200030439060506801268E40B0431E79C6F37A
:1003300000168E4030435060D0684F000326BE4008
:10034000B0434F009E68BE403043D0605E68022ECE
:1003500002D05E68122E13D1CF0802F1200656F8A3
:1003600027004E07F70E0F26BE40B0434F07FF0E83
:100370001E69BE403043CF0802F1200646F8270030
:1003800010684F000326BE40B0431E7906F00306F6
:100390004F00BE40304310605E6806F08056B6F1F4
:1003A000805F7DD100BF00260096404E366846F43F
:1003B00080463E4F3E603E46366806F480460096D4
:1003C00000BF00BF3A4E8F0856F827008E07370F40
:1003D0000F26BE40B043374EB24202D1002624E081
:1003E0005EE0354EB24201D101261EE0334EB242EC
:1003F00001D1022619E0324EB24201D1032614E0A7
:10040000304EB24201D104260FE02F4EB24201D14C
:1004100005260AE02D4EB24201D1062605E02C4EFB
:10042000B24201D1072600E008268F073F0FBE40E9
:1004300030431F4E8F0846F82700264E3068A043F1
:100440005E6806F48036B6F5803F00D12043214E29
:100450003060361D3068A0435E6806F40036B6F59D
:10046000003F00D120431B4E361D3060361D3068E2
:10047000A0435E6806F48016B6F5801F00D12043C5
:10048000144E08363060361D3068A0435E6806F4AE
:100490000016B6F5001F00D120430E4E0C3630601A
:1004A000491C1029FFF420AFF8BD00004438024079
:1004B00008380140000002400004024000080240E9
:1004C000000C0240001002400014024000180240DC
:1004D000001C0240003C0140024613690B400BB176
:1004E000012000E0002070470AB1816101E00B04A7
:1004F0008361704701480068704700004400002095
:1005000003480068034909780844014908607047B6
:10051000440000204C00002010B50D48006840F455
:1005200000700B4908600846006840F4806008606D
:100530000846006840F480700860032000F0A2F8CC
:10054000002000F007F800F02BF8002010BD00009C
:10055000003C024070B504460E4800784FF47A71B2
:10056000B1FBF0F00C490968B1FBF0F5284600F04A
:1005700021FC08B1012070BD102C07D200222146B9
:10058000501E00F041F80548046001E00120F2E748
:100590000020F0E74C000020500000204800002020
:1005A00008B500BF002000900E48006840F480406D
:1005B0000C4908600846006800F48040009000BFC5
:1005C00000BF00BF00200090081F006840F080506E
:1005D000091F08600846006800F08050009000BFC6
:1005E00000BF08BD4438024001460846002809DB28
:1005F00000F01F0301229A4043099B0003F1E0230E
:10060000C3F8002100BF70472DE9F05F80460D461A
:100610001646002701F06AFD074639462A4633464A
:1006200001F00700C0F1070ABAF1040F02D94FF038
:10063000040A01E0C0F1070AD14600F1040ABAF148
:10064000070F02D24FF0000A01E0A0F1030AD446DE
:100650004FF0010A0AFA09FAAAF1010A0AEA020AA3
:100660000AFA0CFA4FF0010B0BFA0CFBABF1010B81
:100670000BEA030B4AEA0B042146404601F03EFD1B
:10068000BDE8F09F00BF00F00702064B19684FF667
:10069000FF031940044B0B4343EA0221014B19604D
:1006A00000BF70470CED00E00000FA0570B504468D
:1006B0000D460CB9012070BD5848006800F00F00CD
:1006C000A84209D255490D700846006800F00F0095
:1006D000A84201D00120EEE7207800F002000228B5
:1006E0001DD1207800F00400042805D14C48006892
:1006F00040F4E0504A490860207800F008000828DB
:1007000005D14748006840F46040454908604448C6
:10071000006820F0F000A168084341490860207893
:1007200000F00100A8B36068012807D13C480838F0
:100730000068C0F34040B8B90120BCE760680228F7
:1007400002D06068032807D1354808380068C0F334
:10075000406048B90120AEE7314808380068C0F36E
:10076000400008B90120A6E72D48006820F00300EA
:10077000616808432A490860FFF7BCFE064609E0A5
:10078000FFF7B8FE801B41F28831884202D903206E
:1007900091E707E02248006800F00C006168B0EBC8
:1007A000810FEDD11D48006800F00F00A84209D963
:1007B0001A490D700846006800F00F00A84201D0E9
:1007C000012078E7207800F00400042807D11448BD
:1007D000006820F4E050E16808431149086020787F
:1007E00000F00800082808D10D48006820F4604097
:1007F000216940EAC1000A49086000F03FF8084951
:100800000968C1F30311074A515CC84006490860F2
:1008100006480068FFF79EFE00204CE7003C0240BF
:10082000083802409C80000850000020480000204A
:1008300001480068704700005000002000B5FFF735
:10084000F7FF04490968C1F38221034A515CC8409B
:1008500000BD000008380240AC80000800B5FFF77A
:10086000E7FF04490968C1F34231034A515CC840BB
:1008700000BD000008380240AC8000082DE9F047B8
:10088000002400250026A1462548006800F00C0041
:1008900020B1042805D008283AD105E0DFF884907B
:1008A00039E0DFF8849036E01D48001F006800F052
:1008B0003F041B48001F006800F4800078B11A480C
:1008C0001749091F0968C1F38811A0FB017001468F
:1008D000224600233846FFF773FC05460EE0114818
:1008E0000F49091F0968C1F38811A0FB0170014677
:1008F000224600233846FFF763FC05460848001FE0
:100900000068C0F30140401C4600B5FBF6F902E068
:10091000DFF8109000BF00BF4846BDE8F087000038
:10092000083802400024F40000127A00F8B50446AA
:100930000CB90120F8BD207800F00100002874D027
:10094000F948006800F00C0004280DD0F648006853
:1009500000F00C00082813D1F348001F006800F4D1
:100960008000B0F5800F0BD1EF4808380068C0F365
:100970004040002859D06068002856D10120D9E7AE
:1009800000BF6068B0F5803F08D1E74808380068CC
:1009900040F48030E449083908601EE06068B0F532
:1009A000A02F0DD1E0480838006840F48020DE49CF
:1009B000083908600846006840F4803008600CE0A0
:1009C000D9480838006820F48030D74908390860D1
:1009D0000846006820F48020086000BF606890B17D
:1009E000FFF788FD054606E0FFF784FD401B6428FD
:1009F00001D903209EE7CC4808380068C0F3404086
:100A00000028F1D011E0FFF775FD054606E0FFF77D
:100A100071FD401B642801D903208BE7C2480838C8
:100A20000068C0F340400028F1D1207800F00200B7
:100A300002285FD1BC48006800F00C0058B1BA48E9
:100A4000006800F00C0008281CD1B748001F00689F
:100A500000F48000B0B9B44808380068C0F3400022
:100A600020B1E068012801D0012063E7AE480838D2
:100A7000006820F0F800216940EAC100AA4908395D
:100A8000086037E0E06800B30120A8490860FFF77C
:100A900031FD054606E0FFF72DFD401B022801D978
:100AA000032047E7A04808380068C0F3400000284A
:100AB000F1D09D480838006820F0F800216940EA2C
:100AC000C10099490839086014E00020974908607E
:100AD000FFF710FD054606E0FFF70CFD401B02285E
:100AE00001D9032026E7904808380068C0F3400089
:100AF0000028F1D1207800F0080008282CD1606986
:100B0000A8B101208A490860FFF7F4FC054606E019
:100B1000FFF7F0FC401B022801D903200AE78248B6
:100B20006C300068C0F340000028F1D014E00020D1
:100B30007F490860FFF7DEFC054606E0FFF7DAFCB8
:100B4000401B022801D90320F4E677486C30006886
:100B5000C0F340000028F1D1207800F00400042800
:100B600070D1002770483830006800F0805090B98C
:100B700000BF002000906C483830006840F0805082
:100B80006949383108600846006800F080500090DC
:100B900000BF00BF01276748006800F48070B0B94B
:100BA0006448006840F4807062490860FFF7A2FC66
:100BB000054606E0FFF79EFC401B022801D90320F2
:100BC000B8E65C48006800F480700028F2D000BFEE
:100BD000A068012808D154486830006840F001003E
:100BE0005149683108601DE0A06805280DD14E48C4
:100BF0006830006840F004004B49683108600846DE
:100C0000006840F0010008600CE047486830006868
:100C100020F001004449683108600846006820F06F
:100C20000400086000BFA068A8B1FFF763FC054698
:100C300009E0FFF75FFC401B41F28831884202D98E
:100C4000032077E626E0384868300068C0F34000AB
:100C50000028EED013E0FFF74DFC054608E0FFF753
:100C600049FC401B41F28831884201D9032061E6EA
:100C70002D4868300068C0F340000028EFD1012FF4
:100C800007D129483830006820F080502649383193
:100C9000086000BFA069002845D02348006800F024
:100CA0000C0008285DD0A069022845D100201F490A
:100CB0000866FFF71FFC054606E0FFF71BFC401B1C
:100CC000022801D9032035E6174808380068C0F328
:100CD00040600028F1D1D4E907010843616A40EA85
:100CE00081110122A06AC2EB500041EA00412C2090
:100CF000005D41EA00600C49091F086001200B49B2
:100D00000866FFF7F7FB054606E0FFF7F3FB401B1D
:100D1000022801D903200DE6034808380068C0F313
:100D200040600028F1D03FE0083802400000474210
:100D3000800E47420070004000201C490866FFF703
:100D4000D9FB054606E0FFF7D5FB401B022801D979
:100D50000320EFE516480068C0F340600028F2D198
:100D600022E0A069012800D1E4E51148001D0668D1
:100D700006F48001E069814214D106F03F01206A47
:100D800081420FD147F6C0703040616A884209D174
:100D900006F44031A06A814204D106F07061E06A35
:100DA000814201D00120C5E50020C3E50000474293
:100DB0000038024070B504462546681EB0F1807FB9
:100DC00001D301200FE0681E4FF0E02148610F21A0
:100DD0004FF0FF3001F092F900204FF0E0218861E0
:100DE00007200861002070BD10B504460CB9012031
:100DF00010BDA06900B100E000BF94F8390028B927
:100E0000002084F83800204600F028F8242084F8D8
:100E100039002068C06820F400502168C86020466E
:100E200000F06EFF2068006920F49040216808619E
:100E30002068406920F02A00216848612068C06865
:100E400040F400502168C8600020E063202084F84E
:100E5000390084F83A000020CAE7000010B586B0D7
:100E60000446142101A8FFF7E3F91F4920688842CE
:100E700038D100BF002000901C48006840F01000EE
:100E80001A4908600846006800F01000009000BF92
:100E900000BF00BF0020009014481438006840F0E4
:100EA00001001249143908600846006800F001008A
:100EB000009000BF00BF4FF4C0600190022002907C
:100EC00000200390032004900720059001A9084802
:100ED000FFF702FA002201212520FFF795FB2520CC
:100EE000FFF782FB06B010BD0010014044380240FD
:100EF0000000024000BFFEE72DE9F04104460D4628
:100F000016461F462A2000F07BFCA11C88B200F088
:100F100068FCB11C88B200F064FC2B2000F070FC6F
:100F2000691C88B200F05DFC791C88B200F059FCA5
:100F30002C2000F065FCBDE8F0812DE9FF4F85B065
:100F400081468A460020039083460798A0EB090457
:100F50000898A0EB0A06CDF80890CDF804A0002C64
:100F600001DD012705E00CB9002702E04FF0FF3753
:100F70006442002E02DD4FF0010806E016B94FF082
:100F8000000802E04FF0FF386642B44201DD25461A
:100F900000E03546002004901EE0019A91B2029ACA
:100FA00090B2129A00F01FF8039820440390B344C3
:100FB0000398A84205DD0398401B0390029838442B
:100FC0000290AB4504DDABEB050B0198404401906A
:100FD0000498401C80B20490691C04988842DCDBB1
:100FE00009B0BDE8F08F70B504460D4616462B4695
:100FF000224629462046FFF77FFF304600F0F1FBEE
:1010000070BD2DE9F84305460E4617469846089CE4
:1010100033463A46314628460094FFF78EFF434652
:101020002A46314628460094FFF787FF43463A4652
:10103000414628460094FFF780FF43463A46314632
:1010400038460094FFF779FFBDE8F8832DE9F047B3
:1010500006460F4614461D46DDF820A0681E83B2E2
:10106000601E82B239463046FFF746FFB8460EE0B2
:10107000B14606E0504600F0B4FB09F101001FFA4A
:1010800080F9A145F6DB08F101001FFA80F8A845B8
:10109000EEDBBDE8F087000010B500224FF4806160
:1010A0007B48FFF721FA6420FFF702F90122910241
:1010B0007748FFF719FA6420FFF7FAF80122510385
:1010C0007348FFF711FA6420FFF7F2F8112000F0DF
:1010D00097FB7820FFF7ECF8B12000F091FB05209A
:1010E00000F088FB3C2000F085FB3C2000F082FBF8
:1010F000B22000F085FB052000F07CFB3C2000F0D6
:1011000079FB3C2000F076FBB32000F079FB052052
:1011100000F070FB3C2000F06DFB3C2000F06AFB0F
:10112000052000F067FB3C2000F064FB3C2000F051
:1011300061FBB42000F064FB032000F05BFBC020E7
:1011400000F05EFB282000F055FB082000F052FB69
:10115000042000F04FFBC12000F052FBC02000F043
:1011600049FBC22000F04CFB0D2000F043FB0020A7
:1011700000F040FBC32000F043FB8D2000F03AFB61
:101180002A2000F037FBC42000F03AFB8D2000F04D
:1011900031FBEE2000F02EFBC52000F031FB1A20C1
:1011A00000F028FB362000F02BFBC02000F022FBD3
:1011B000E02000F025FB042000F01CFB222000F0C2
:1011C00019FB072000F016FB0A2000F013FB2E206D
:1011D00000F010FB302000F00DFB252000F00AFB92
:1011E0002A2000F007FB282000F004FB262000F056
:1011F00001FB2E2000F0FEFA3A2000F0FBFA00205E
:1012000000F0F8FA012000F0F5FA032000F0F2FAFD
:10121000132000F0EFFAE12000F0F2FA042000F0D1
:10122000E9FA162000F0E6FA062000F0E3FA0D20B5
:1012300000F0E0FA2D2000F0DDFA262000F0DAFAC6
:10124000232000F0D7FA272000F0D4FA272000F05E
:10125000D1FA252000F0CEFA2D2000F0CBFA3B2069
:1012600000F0C8FA002000F0C5FA012000F0C2FA30
:10127000042000F0BFFA132000F0BCFA3A2000F07E
:10128000BFFA052000F0B6FA292000F0B9FA10BD27
:10129000000C02402DE9FF4F83B005468A461746F1
:1012A000119CAB46204604EBD071C1F34706304693
:1012B000F11706EB5171C910614389B20191A7F191
:1012C0002000C7B20AEB0400401E83B2A819401EDA
:1012D00082B251462846FFF70FFE4FF000094AE060
:1012E000102C06D1264800EB071010F809000290D8
:1012F0000BE0202C06D1234800EB871010F80900E2
:10130000029002E007B0BDE8F08F4FF000082AE03D
:10131000129868B9012000FA08F00299084018B143
:10132000069800F05EFA1AE0109800F05AFA16E0FB
:10133000012000FA08F00299084020B151462846E1
:10134000069AFFF750FE681C85B2A5EB0B00B04271
:1013500005D15D460AF101001FFA80FA06E008F1A6
:10136000010000F0FF08B8F1080FD1DB00BF09F160
:1013700001001FFA80F901988145B1DB00BFC1E788
:101380006A5C00085A6200082DE9FE4F80468946D3
:1013900015469A46DDE90D470C9E2AE0102C09D12E
:1013A00053462A4649464046CDE90147009600F09B
:1013B00025F819E0182C09D153462A4649464046DB
:1013C000CDE90147009600F0ABF80DE0202C09D1E3
:1013D00053462A4649464046CDE90147009600F06B
:1013E00029F901E0BDE8FE8FAD1C08EB04001FFAEF
:1013F00080F828780028D1D100BFF3E72DE9FF4F0E
:1014000083B005460F469346119CAA462046E11735
:1014100004EB5171C910614389B201910D20029012
:10142000002674E006EB06103C4911F810009BF80A
:101430000010884268D106EB0610384901EB4000E5
:1014400040789BF8011088425ED13819401E83B263
:101450002819401E82B239462846FFF74DFD4FF04D
:1014600000084EE04FF0000943E0129808BB06EB7D
:1014700006102A4901EB4000801C10F8080080216A
:1014800041FA09F1084028B139462846069AFFF783
:10149000AAFD04E039462846109AFFF7A4FD681C0F
:1014A00085B2A5EB0A00A0421FD15546781C87B231
:1014B00022E006EB0610194901EB4000801C10F8F1
:1014C0000800012101FA09F1084020B139462846F7
:1014D000069AFFF788FD681C85B2A5EB0A00A042BA
:1014E00003D15546781C87B206E009F1010000F0EF
:1014F000FF09B9F1080FB8DB00BF08F1010000F0E7
:10150000FF0801988045ADDB00BF701C86B20298D1
:10151000864287DB07B0BDE8F08F00001A7A00082A
:101520002DE9FE4F0646894692469B460D9C009645
:101530002046E11704EB5171C910614389B2019152
:101540000520029000256DE005EB850000EB4510BD
:10155000374911F810009AF8001088425FD105EB66
:10156000850000EB4510324901EB400040789AF8C5
:101570000110884253D109EB0400401E83B2301998
:10158000401E82B249463046FFF7B6FC002743E0D2
:101590004FF000083AE00E98A8B905EB850000EB83
:1015A0004510234901EB4000801CC05D012101FA78
:1015B00008F1084018B1584600F013F922E00C98E1
:1015C00000F00FF91EE005EB850000EB451018490F
:1015D00001EB4000801CC05D012101FA08F10840C8
:1015E00020B15A4649463046FFF7FDFC701C86B2D2
:1015F0000098301AA04205D1009E09F101001FFA9F
:1016000080F906E008F1010000F0FF08B8F1080FCA
:10161000C1DB00BF781CC7B201988742B8DB00BFAE
:10162000681C85B2029885428EDBBDE8FE8F000003
:10163000D47B00082DE9FE4F0646894692469B461C
:101640000D9C00962046E11704EB5171C9106143CF
:1016500089B2019105200290002565E005EB851017
:10166000344911F810009AF80010884259D105EB5E
:101670008510304901EB400040789AF8011088420B
:101680004FD109EB0400401E83B23019401E82B2D4
:1016900049463046FFF730FC00273FE04FF0000896
:1016A00036E00E9898B905EB8510224901EB400011
:1016B000801CC05D012101FA08F1084018B15846AC
:1016C00000F08FF820E00C9800F08BF81CE005EBA0
:1016D0008510184901EB4000801CC05D012101FA12
:1016E00008F1084020B15A4649463046FFF77BFCD6
:1016F000701C86B20098301AA04205D1009E09F1F4
:1017000001001FFA80F906E008F1010000F0FF086F
:10171000B8F1080FC5DB00BF781CC7B2019887423B
:10172000BCDB00BF681C85B20298854296DBBDE831
:10173000FE8F0000467D00082DE9F05F07468846D1
:1017400015461E46DDF82890002408EB0600401ED2
:1017500083B27819401E82B241463846FFF7CCFB6F
:10176000A24619E04FF0000B10E019F8140000F049
:1017700041F8012101EB440119F8010000F03AF8A9
:10178000601C84B20BF101001FFA80FBB345ECDB57
:101790000AF101001FFA80FAAA45E3DBBDE8F09FD9
:1017A0002DE9FE4F06460F4614469846DDE90D5AD0
:1017B000DDF8309010E0CDE9015ACDF800902278A4
:1017C000434639463046FFF765FD284605EBD071A4
:1017D00006EB61018EB2641C20780028EBD1BDE8D5
:1017E000FE8F10B50446201200F01EF8E0B200F0A3
:1017F0001BF810BD10B50446204600F015F810BDCA
:1018000010B5044600224FF400610648FEF76CFE56
:10181000204600F009F80122D1020248FEF764FEDA
:1018200010BD0000000C024070B5044600224FF4C9
:1018300080511548FEF758FE00251DE000224FF4A8
:1018400080711148FEF750FE04F0800028B101229B
:1018500051020D48FEF748FE05E000224FF40071EA
:101860000948FEF741FE012211020748FEF73CFE3F
:101870006006040E681CC5B2082DDFDB01221103CF
:101880000148FEF731FE70BD000C024038B5044639
:1018900034B1012C18D0022C2AD0032C50D13BE0BB
:1018A0002D48007800EB40002C4901EB8000407887
:1018B000294908704FF6FF70A02380220021009074
:1018C0000846FFF7C3FB3BE02348007800EB4000ED
:1018D000224901EB800080781F4908704FF6FF70A5
:1018E000A0238022002100900846FFF7AFFB27E0ED
:1018F0001948007800EB4000184901EB8000C078DF
:10190000154908704FF6FF70A02380220021009037
:101910000846FFF79BFB13E00F48007800EB400000
:101920000E4901EB800000790B4908704FF6FF70FB
:10193000A0238022002100900846FFF787FB00BF0C
:1019400000BF0549097801EB4101044A02EB81011E
:101950008868804738BD000040000020D07F000824
:1019600000B587B0142102A8FEF762FC00BF00207A
:1019700001904D48006840F080004B4908600846DF
:10198000006800F08000019000BF00BF00BF002091
:1019900001900846006840F00100086008460068B1
:1019A00000F00100019000BF00BF00BF00200190C7
:1019B0000846006840F0020008600846006800F031
:1019C0000200019000BF00BF00BF00200190084648
:1019D000006840F0200008600846006800F0200021
:1019E000019000BF00BF00BF0020019008460068C2
:1019F00040F0080008600846006800F00800019008
:101A000000BF00BF00BF002001900846006840F002
:101A1000100008600846006800F01000019000BF48
:101A200000BF00224FF440612048FEF75DFD002218
:101A30004FF440511D48FEF757FD4FF440600290AF
:101A40000120039004900020059002A91748FEF79A
:101A500043FC4FF44050029001200390049000207A
:101A6000059002A91148FEF737FC00224FF470716F
:101A70000F48FEF739FD4FF470700290012003907B
:101A800000200490059002A90948FEF725FC3C209F
:101A90000290002003900220049002A90548FEF75E
:101AA0001BFC07B000BD000030380240000C0240B3
:101AB000000402400010024010B50B480B490860BA
:101AC0004FF4E1304860002108488160C160016145
:101AD0000C21416100218161C161FFF785F908B1E5
:101AE000FEF7E5FB10BD0000001001401C010020C6
:101AF00000BFFEE77047704700B587B000BF002009
:101B000001901D48006840F008001B490860084625
:101B1000006800F00800019000BF00BF00BF002077
:101B200001900846006840F0080008600846006818
:101B300000F00800019000BF00BF8815029001204E
:101B400003900320059002A90C48FEF7C5FB012273
:101B500011020A48FEF7C8FC4FF400700290012001
:101B6000039002A90548FEF7B7FB01225102034882
:101B7000FEF7BAFC07B000BD30380240000C02404E
:101B8000704700002DE9F0414FF0FF370026002597
:101B9000002400BF3EE0002539E0AE420AD1204AD1
:101BA00002EBC50291881E4A52F835000122FEF769
:101BB0009BFC09E01A4A02EBC5029188184A52F8C8
:101BC00035000022FEF790FC00241DE0154A02EBD0
:101BD000C4029188134A52F83400FEF77DFC0028B5
:101BE00002DDC820FEF764FB0E4A02EBC4029188B6
:101BF0000C4A52F83400FEF76FFC002803DDC6F1F2
:101C0000030000EB8407641C042CDFD36D1C042D3F
:101C1000C3D3761C042EBED33846BDE8F081000045
:101C2000000000202000002010B5FEF769FC10BD68
:101C300000B593B0302107A8FEF7FAFA142102A8E4
:101C4000FEF7F6FA00BF002001902448006840F03B
:101C50008050224908600846006800F080500190DA
:101C600000BF00BF00BF002001901D48006840F485
:101C700080401B4908600846006800F480400190DD
:101C800000BF00BF012007900004089002200D90C3
:101C900041050E9104210F91A8211091022111916B
:101CA0000421129107A8FEF741FE08B1FEF7FFFAE2
:101CB0000F20029002200390002004904FF4A050C7
:101CC00005904FF480500690052102A8FEF7EEFC27
:101CD00008B1FEF7ECFA13B000BD00004038024036
:101CE000007000400548006840F470000349086037
:101CF0004FF00060014980390860704788ED00E0CE
:101D00002DE9F84F04462068006920F44050E1684E
:101D10000843216808612169A06808436169084394
:101D2000E169084300902068C06849F20C6188436B
:101D3000009908432168C8602068406920F4407019
:101D4000A169084321684861E069B0F5004F75D189
:101D5000E3492068884203D0E249206888426FD175
:101D6000FEF77CFD814602206168A0FB01510B4615
:101D70001920A9FB00712A463846FEF721FA642192
:101D8000B0FBF1F04FEA001A02206168A0FB01519C
:101D90000B461920A9FB00712A463846FEF710FAB7
:101DA000074602206168A0FB01510B461920A9FBE0
:101DB00000B12A465846FEF703FA6421B0FBF1F061
:101DC00000EBC00101EB0010A7EB8000322101EB1A
:101DD000C0006421B0FBF1F000F0F8000AEB400A0B
:101DE00002206168A0FB01510B461920A9FB00717C
:101DF0002A463846FEF7E4F9074602206168A0FB50
:101E000001510B461920A9FB00B12A465846FEF79E
:101E1000D7F96421B0FBF1F000EBC00101EB001039
:101E2000A7EB8000322101EBC0006421B0FBF1F090
:101E300000F007005044216888604FE16EE0FFE742
:101E4000FEF7FCFC814602206168A0FB01510B46B5
:101E50001920A9FB00712A463846FEF7B1F9642122
:101E6000B0FBF1F04FEA001A02206168A0FB0151BB
:101E70000B461920A9FB00712A463846FEF7A0F947
:101E8000074602206168A0FB01510B461920A9FBFF
:101E900000B12A465846FEF793F96421B0FBF1F0F1
:101EA00000EBC00101EB0010A7EB8000322101EB39
:101EB000C0006421B0FBF1F000F0F8000AEB400A2A
:101EC00002206168A0FB01510B461920A9FB00719B
:101ED0002A463846FEF774F9074602206168A0FBDF
:101EE000015003461920A9FB00B12A465846FEF7C7
:101EF00067F96421B0FBF1F000EBC00101EB0010C9
:101F0000A7EB8000322101EBC0006421B0FBF1F0AF
:101F100000F00700504421688860DFE070492068C5
:101F2000884203D06F49206888426BD1FEF796FC47
:101F3000814604206168A0FB01510B461920A9FBD2
:101F400000712A463846FEF73BF982460420616854
:101F5000A0FB01510B461920A9FB00712A46384607
:101F6000FEF72EF96421B0FBF1F000EBC00101EBAC
:101F70000010AAEB8000322101EB00106421B0FBBD
:101F8000F1F000F0F00A04206168A0FB0150034664
:101F90001920A9FB00712A463846FEF711F9642181
:101FA000B0FBF1F00AEB001A04206168A0FB0151BC
:101FB0000B461920A9FB00712A463846FEF700F9A6
:101FC000074604206168A0FB015003461920A9FBC5
:101FD00000B12A465846FEF7F3F86421B0FBF1F051
:101FE00000EBC00101EB0010A7EB8000322101EBF8
:101FF00000106421B0FBF1F000F00F0050442168A4
:1020000088606BE0FEF71AFC814604206168A0FB43
:10201000015003461920A9FB00712A463846FEF7F5
:10202000CFF8824604206168A0FB015003461920C6
:10203000A9FB00712A463846FEF7C2F86421B0FBBE
:10204000F1F000EBC00101EB0010AAEB800032219F
:1020500001EB00106421B0FBF1F000F0F00A042065
:102060006168A0FB015003461920A9FB00712A46B4
:102070003846FEF7A5F86421B0FBF1F00AEB001A30
:1020800004206168A0FB017003461920A9FB0050E1
:1020900001463A462846FEF793F807460420616851
:1020A000A0FB015003461920A9FB00B12A4658465F
:1020B000FEF786F86421B0FBF1F000EBC00101EB04
:1020C0000010A7EB8000322101EB00106421B0FB6F
:1020D000F1F000F00F00504421688860BDE8F88FEF
:1020E000001001400014014000BFFEE702480068F4
:1020F000C0F30220704700000CED00E010B500288E
:1021000004DB0A07130E054A135406E00A07140EEF
:10211000034A00F00F031B1FD45410BD00E400E07D
:1021200018ED00E002E008C8121F08C1002AFAD129
:1021300070477047002001E001C1121F002AFBD147
:10214000704700000EB51424FEF7E6F9FFF770FDA6
:10215000FFF706FCFFF7D0FCFEF79EFFFFF7ACFC95
:102160004FF6E070A0238022002100900846FEF781
:102170006DFF002096237D220A2100900820FEF7A3
:1021800040FF002010214FF6E0720346CDE9002108
:10219000029038A250210A20FFF7F6F80020102103
:1021A0004FF6E0720346CDE9002102903A22502119
:1021B0003020FFF76FF8002010214FF6E072034641
:1021C000CDE9002102902DA250214420FFF7DCF838
:1021D000002010214FF6E0720346CDE90021029065
:1021E00028A26E210A20FFF7CFF8002010214FF619
:1021F000E0720346CDE9002102903A226E213020A0
:10220000FFF748F8002010214FF6E0720346CDE9B1
:10221000002102901DA26E213C20FFF7B5F800209E
:1022200010214FF6E0720346CDE9002102901AA278
:1022300082215020FFF7B4FA19483C235A220A2180
:1022400000900846FFF778FA40F6B830FEF730F80D
:102250004FF6E070A0238022002100900846FEF790
:10226000F5FE05E0FFF78EFC04462046FFF70EFB67
:10227000F8E70000D0D5C3FB00000000C1F5C9D0CD
:10228000D3EE0000B0E0BCB600000000D0C5CFA285
:10229000B9A4B3CC00000000313930310000000097
:1022A000B02D00080EB5012020214FF6E07200236A
:1022B000CDE90021029009A202212320FFF770FA44
:1022C000012010214FF6E0720023CDE90021029099
:1022D00003A23C211420FFF763FA0EBD4C535900B2
:1022E0006D656E7520646973706C61790000000023
:1022F0000EB5002010214FF6E0720346CDE9002113
:10230000029016A201460220FFF74AFA012010218E
:102310004FF6E0720023CDE90021029013A20220C3
:10232000FFF73EFA012010214FF6E0720023CDE9BD
:102330000021029011A220210220FFF731FA012092
:1023400010214FF6E0720023CDE9002102900FA288
:1023500030210220FFF724FA0EBD00006D656E7576
:102360003120202020202020000000006D656E75A7
:102370003220202020202020000000006D656E7596
:102380003320202020202020000000006578697480
:102390002020202020202020000000000EB5012059
:1023A00010214FF6E0720023CDE90021029016A221
:1023B00019460220FFF7F4F9002010214FF6E072D1
:1023C0000346CDE90021029013A20220FFF7E8F9AD
:1023D000012010214FF6E0720023CDE90021029088
:1023E00011A220210220FFF7DBF9012010214FF676
:1023F000E0720023CDE9002102900FA230210220DB
:10240000FFF7CEF90EBD00006D656E7531202020FE
:1024100020202020000000006D656E7532202020F5
:1024200020202020000000006D656E7533202020E4
:1024300020202020000000006578697420202020E2
:1024400020202020000000000EB5012010214FF6B2
:10245000E0720023CDE90021029016A21946022065
:10246000FFF79EF9012010214FF6E0720023CDE91D
:102470000021029013A20220FFF792F90020102100
:102480004FF6E0720346CDE90021029011A220210F
:102490000220FFF785F9012010214FF6E07200239A
:1024A000CDE9002102900FA230210220FFF778F938
:1024B0000EBD00006D656E7531202020202020208B
:1024C000000000006D656E75322020202020202045
:1024D000000000006D656E75332020202020202034
:1024E0000000000065786974202020202020202032
:1024F000000000000EB5012010214FF6E07200230D
:10250000CDE90021029016A219460220FFF748F9F2
:10251000012010214FF6E0720023CDE90021029046
:1025200013A20220FFF73CF9012010214FF6E072C0
:102530000023CDE90021029011A220210220FFF703
:102540002FF9002010214FF6E0720346CDE900215B
:1025500002900FA230210220FFF722F90EBD0000E9
:102560006D656E75312020202020202000000000A5
:102570006D656E7532202020202020200000000094
:102580006D656E7533202020202020200000000083
:102590006578697420202020202020200000000081
:1025A0000EB5002010214FF6E0720346CDE9002160
:1025B000029016A201460220FFF7F2F80120102136
:1025C0004FF6E0720023CDE90021029013A2022011
:1025D000FFF7E6F8012010214FF6E0720023CDE965
:1025E0000021029011A220210220FFF7D9F801203A
:1025F00010214FF6E0720023CDE9002102900FA2D6
:1026000030210220FFF7CCF80EBD00007375624D3B
:10261000656E75315F312020000000007375624DDA
:10262000656E75315F322020000000007375624DC9
:10263000656E75315F332020000000006578697495
:102640002020202020202020000000000EB50120A6
:1026500010214FF6E0720023CDE90021029016A26E
:1026600019460220FFF79CF8002010214FF6E07277
:102670000346CDE90021029013A20220FFF790F853
:10268000012010214FF6E0720023CDE900210290D5
:1026900011A220210220FFF783F8012010214FF61C
:1026A000E0720023CDE9002102900FA23021022028
:1026B000FFF776F80EBD00007375624D656E7531DB
:1026C0005F312020000000007375624D656E75312A
:1026D0005F322020000000007375624D656E753119
:1026E0005F332020000000006578697420202020DE
:1026F00020202020000000000EB5012010214FF600
:10270000E0720023CDE90021029016A219460220B2
:10271000FFF746F8012010214FF6E0720023CDE9C3
:102720000021029013A20220FFF73AF800201021A6
:102730004FF6E0720346CDE90021029011A220215C
:102740000220FFF72DF8012010214FF6E072002340
:10275000CDE9002102900FA230210220FFF720F8DE
:102760000EBD00007375624D656E75315F312020BE
:10277000000000007375624D656E75315F32202078
:10278000000000007375624D656E75315F33202067
:10279000000000006578697420202020202020207F
:1027A000000000000EB5012010214FF6E07200235A
:1027B000CDE90021029016A219460220FEF7F0FF93
:1027C000012010214FF6E0720023CDE90021029094
:1027D00013A20220FEF7E4FF012010214FF6E07261
:1027E0000023CDE90021029011A220210220FEF752
:1027F000D7FF002010214FF6E0720346CDE90021FB
:1028000002900FA230210220FEF7CAFF0EBD000089
:102810007375624D656E75315F31202000000000D8
:102820007375624D656E75315F32202000000000C7
:102830007375624D656E75315F33202000000000B6
:1028400065786974202020202020202000000000CE
:102850000EB5002010214FF6E0720346CDE90021AD
:10286000029016A201460220FEF79AFF01201021D5
:102870004FF6E0720023CDE90021029013A202205E
:10288000FEF78EFF012010214FF6E0720023CDE904
:102890000021029011A220210220FEF781FF0120D9
:1028A00010214FF6E0720023CDE9002102900FA223
:1028B00030210220FEF774FF0EBD00007375624DDB
:1028C000656E75325F312020000000007375624D27
:1028D000656E75325F322020000000007375624D16
:1028E000656E75325F3320200000000065786974E2
:1028F0002020202020202020000000000EB50120F4
:1029000010214FF6E0720023CDE90021029016A2BB
:1029100019460220FEF744FF002010214FF6E07216
:102920000346CDE90021029013A20220FEF738FFF2
:10293000012010214FF6E0720023CDE90021029022
:1029400011A220210220FEF72BFF012010214FF6BB
:10295000E0720023CDE9002102900FA23021022075
:10296000FEF71EFF0EBD00007375624D656E753279
:102970005F312020000000007375624D656E753276
:102980005F322020000000007375624D656E753265
:102990005F3320200000000065786974202020202B
:1029A00020202020000000000EB5012010214FF64D
:1029B000E0720023CDE90021029016A21946022000
:1029C000FEF7EEFE012010214FF6E0720023CDE964
:1029D0000021029013A20220FEF7E2FE0020102147
:1029E0004FF6E0720346CDE90021029011A22021AA
:1029F0000220FEF7D5FE012010214FF6E0720023E1
:102A0000CDE9002102900FA230210220FEF7C8FE7E
:102A10000EBD00007375624D656E75325F3120200A
:102A2000000000007375624D656E75325F322020C4
:102A3000000000007375624D656E75325F332020B3
:102A400000000000657869742020202020202020CC
:102A5000000000000EB5012010214FF6E0720023A7
:102A6000CDE90021029016A219460220FEF798FE39
:102A7000012010214FF6E0720023CDE900210290E1
:102A800013A20220FEF78CFE012010214FF6E07207
:102A90000023CDE90021029011A220210220FEF79F
:102AA0007FFE002010214FF6E0720346CDE90021A1
:102AB00002900FA230210220FEF772FE0EBD000030
:102AC0007375624D656E75325F3120200000000025
:102AD0007375624D656E75325F3220200000000014
:102AE0007375624D656E75325F3320200000000003
:102AF000657869742020202020202020000000001C
:102B00000EB5002010214FF6E0720346CDE90021FA
:102B1000029016A201460220FEF742FE012010217B
:102B20004FF6E0720023CDE90021029013A20220AB
:102B3000FEF736FE012010214FF6E0720023CDE9AA
:102B40000021029011A220210220FEF729FE01207F
:102B500010214FF6E0720023CDE9002102900FA270
:102B600030210220FEF71CFE0EBD00007375624D81
:102B7000656E75335F312020000000007375624D73
:102B8000656E75335F322020000000007375624D62
:102B9000656E75335F33202000000000657869742E
:102BA0002020202020202020000000000EB5012041
:102BB00010214FF6E0720023CDE90021029016A209
:102BC00019460220FEF7ECFD002010214FF6E072BE
:102BD0000346CDE90021029013A20220FEF7E0FD9A
:102BE000012010214FF6E0720023CDE90021029070
:102BF00011A220210220FEF7D3FD012010214FF663
:102C0000E0720023CDE9002102900FA230210220C2
:102C1000FEF7C6FD0EBD00007375624D656E75331F
:102C20005F312020000000007375624D656E7533C2
:102C30005F322020000000007375624D656E7533B1
:102C40005F33202000000000657869742020202078
:102C500020202020000000000EB5012010214FF69A
:102C6000E0720023CDE90021029016A2194602204D
:102C7000FEF796FD012010214FF6E0720023CDE90A
:102C80000021029013A20220FEF78AFD00201021ED
:102C90004FF6E0720346CDE90021029011A22021F7
:102CA0000220FEF77DFD012010214FF6E072002387
:102CB000CDE9002102900FA230210220FEF770FD25
:102CC0000EBD00007375624D656E75335F31202057
:102CD000000000007375624D656E75335F32202011
:102CE000000000007375624D656E75335F33202000
:102CF000000000006578697420202020202020201A
:102D0000000000000EB5012010214FF6E0720023F4
:102D1000CDE90021029016A219460220FEF740FDDF
:102D2000012010214FF6E0720023CDE9002102902E
:102D300013A20220FEF734FD012010214FF6E072AD
:102D40000023CDE90021029011A220210220FEF7EC
:102D500027FD002010214FF6E0720346CDE9002147
:102D600002900FA230210220FEF71AFD0EBD0000D6
:102D70007375624D656E75335F3120200000000071
:102D80007375624D656E75335F3220200000000060
:102D90007375624D656E75335F332020000000004F
:102DA0006578697420202020202020200000000069
:102DB000D942D942D942D942D942D942D942D9423B
:102DC000D942D942D942D942D942D942D942D9422B
:102DD000D942D942D942D942D942D942D942D9421B
:102DE000D942D942D942D942D942D942D942D9420B
:102DF000D942D942D942D942D942D942D942D942FB
:102E0000D942D942D942D942D942D942D942D942EA
:102E1000D942D942D942D942D942D942D942D942DA
:102E2000D942D942D942D942D942D942D942D942CA
:102E3000D942D942D942D942D942D942D942D942BA
:102E4000D942D942D942D942D942D942D942D942AA
:102E5000D942D942D942D942D942D942D942D9429A
:102E6000D942D942D942D942D942D942D942D9428A
:102E7000D942D942D942D942D942D942D942D9427A
:102E8000D942D942D942D942D942D942D942D9426A
:102E9000D942D942D942D942D942D942D942D9425A
:102EA000D942D942D942D942D942D942D942D9424A
:102EB000D942D942D942D942D942D942D942D9423A
:102EC000D942D942D942D942D942D942D942D9422A
:102ED000D942D942D942D942D942D942D942D9421A
:102EE000D942D942D942D942D942D942D942D9420A
:102EF000D942D942D942D942D942D942D942D942FA
:102F0000D942D942D942D942D942D942D942D942E9
:102F1000D942D942D942D942D942D942D942D942D9
:102F2000D942D942D942D942D942D942D942D942C9
:102F3000D942D942D942D942D942D942D942D942B9
:102F4000D942D942D942D942D942D942D942D922C9
:102F5000D941E122D122D941D942E122D942D942F3
:102F6000D942D942D942D942D942D942D942D94289
:102F7000D942D942D942D942D942D942D942D94279
:102F8000D942D942D942D942D942D942D942D94269
:102F9000D942D942D942D942D942D942D942D94259
:102FA000D942D942D942D942D942D942D942D94249
:102FB000D942D942D942D942D942D942D942D94239
:102FC000D942D942D942D942D942D942D942D94229
:102FD000D942D942D942D942D942D942D942D94219
:102FE000D942D942D942D942D942D942D942D94209
:102FF000D942D942D942D942D942D942D942D942F9
:10300000D942D942D8C2D8C1DC04D920D922D94268
:10301000D942D942D942D942D942D942D942D942D8
:10302000D942D942D942D942D942D942D942D942C8
:10303000D942D942D942D942D942D942D942D942B8
:10304000D942D942D942D942D942D942D942D942A8
:10305000D942D942D942D942D942D942D942D94298
:10306000D942D942D942D942D942D942D942D94288
:10307000D942D942D942D942D942D942D942D94278
:10308000D942D942D942D942D942D942D942D94268
:10309000D942D942D942D942D942D942D942D92278
:1030A000D942D942D942D942D942D942D942D94248
:1030B000D942D942D902DB03ED24DC02FE84D0815F
:1030C000E122D941D942D942D942D942D942D94241
:1030D000D942D942D942D942D942D942D942D94218
:1030E000D942D942D942D942D942D942D942D94208
:1030F000D942D942D942D942D942D942D942D942F8
:10310000D942D942D942D942D942D942D942D942E7
:10311000D942D942D942D942D942D942D942D942D7
:10312000D942D942D942D942D942D942D942D942C7
:10313000D942D942D942D942D942D942D942D942B7
:10314000D942D942D942D942D942D942D942D942A7
:10315000D921D922D942D942D942D942D942D942D8
:10316000D942D942D942D942D942D0C1ED42FF8198
:10317000FEE1E463D202D921D941D942D942D942F0
:10318000D942D942D942D942D942D942D942D94267
:10319000D942D942D942D942D942D942D942D94257
:1031A000D942D942D942D942D942D942D942D94247
:1031B000D942D942D942D942D942D942D942D94237
:1031C000D942D942D942D942D942D942D942D94227
:1031D000D942D942D942D942D942D942D942D94217
:1031E000D942D942D942D942D942D942D942D94207
:1031F000D942D942D942D942D942D942D942D942F7
:10320000D942D922DA62DA02D921D942D942D94245
:10321000D942D942D942D942D942D942D922C981C7
:10322000FEA4FF42F6C1E422DA42D921D942D942B2
:10323000D942D942D942D942D942D942D942D942B6
:10324000D942D942D942D942D942D942D942D942A6
:10325000D942D942D942D942D942D942D942D94296
:10326000D942D942D942D942D942D942D942D94286
:10327000D942D942D942D942D942D942D942D94276
:10328000D942D942D942D942D942D942D942D94266
:10329000D942D942D942D942D942D942D942D94256
:1032A000D942D942D942D942D942D942D942D94246
:1032B000D942D942D942D0E1E4C3E403D8E1D942AA
:1032C000D942D942D942D942D942D942D942D94226
:1032D000D922DB44D2C2DB42F5A4D080D921D94225
:1032E000D942D942D942D922D942D942D922D92266
:1032F000D922D922D922D922D922D922D922D922F6
:10330000D922D922D922D922D922D922D922D922E5
:10331000D922D922D922D922D922D922D922D922D5
:10332000D922D922D922D922D922D922D922D922C5
:10333000D922D922D922D922D922D922D922D922B5
:10334000D922D922D922D922D922D922D922D922A5
:10335000D942D942D942D942D942D942D942D94295
:10336000D942D942D942D942D921C8E1F683F6429D
:10337000D0C1D942D942D942D942D942D942D942FF
:10338000D942D942D922D8E1E0E1D101DB84D92167
:10339000D941D942D921E102D922D942E121E12101
:1033A000D942D922D922D922D922D922D922D92225
:1033B000D922D922D922D922D922D922D922D92235
:1033C000D922D922D922D922D922D922D922D92225
:1033D000D922D922D922D922D922D922D922D92215
:1033E000D922D922D922D922D922D922D922D92205
:1033F000D922D922D922D922D922D922D922D922F5
:10340000D922D922D942D942D942D942D942D94224
:10341000D942D942D942D942D942D942D921C9E166
:10342000FF41FF42D1A1D921E122D942D942D9425B
:10343000D942D942D942D942D922D942D942D922F4
:10344000D901D922D942D921DA43C9A1D8A2D1219F
:10345000E142D921D942D942D942D942D942D942AD
:10346000D942D942D942D942D942D942D942D94284
:10347000D942D942D942D942D942D942D942D94274
:10348000D942D942D942D942D942D942D942D94264
:10349000D942D942D942D942D942D942D942D94254
:1034A000D942D942D942D942D942D942D942D94244
:1034B000D942D942D942D942D942D942D942D94234
:1034C000D942D942D942D922D922D942D942D94264
:1034D000D8C2DC22FF41FF40E3E2E0E2D921D92259
:1034E000D922E122E122D922D942D922D942D922B4
:1034F000D942D922D922D941D942D921CA01FEA41F
:10350000D382F5A6D121E122E141E141D942D9425C
:10351000D942D942D942D942D942D942D942D942D3
:10352000D942D942D942D942D942D942D942D942C3
:10353000D942D942D942D942D942D942D942D942B3
:10354000D942D942D942D942D942D942D942D942A3
:10355000D942D942D942D942D942D942D942D94293
:10356000D942D942D942D942D942D942D942D94283
:10357000D942D942D942D942D941D101D0C1D0C1D1
:10358000D0C1D0C1C881F623FF20FEE0F623C0A140
:10359000D0C1D0C1D0C1D0C1D101D942D922D92204
:1035A000D942D942D942D942D922D942D922C94194
:1035B000D3A2FF61FFC0D2C1E8A3D961E121E1211B
:1035C000D922D922D942D942D942D942D942D94263
:1035D000D942D942D942D942D942D942D942D94213
:1035E000D942D942D942D942D942D942D942D94203
:1035F000D942D942D942D942D942D942D942D942F3
:10360000D942D942D942D942D942D942D942D942E2
:10361000D942D942D942D942D942D942D942D942D2
:10362000D942D942D942D942D942E122D182F5E6E2
:10363000F6E3FE82F682F6A3FE62FF61FEC2F702A7
:10364000D504F664FE82FE82F683FF02EDE5D962C0
:10365000E121D922D942D942D942D942D942D922EB
:10366000D901DB63EDA4F701FF61FEA6C9C0E12229
:10367000E121E121E122D922D942D942D942D942DC
:10368000D942D942D942D942D942D942D942D94262
:10369000D942D942D942D942D942D942D942D94252
:1036A000D942D942D942D942D942D942D942D94242
:1036B000D942D942D942D942D942D942D942D94232
:1036C000D942D942D942D942D942D942D942D94222
:1036D000D942D942D942D942D942D942D942D94212
:1036E000D922D101ECA3FF83FF20FF00FF82DAC2C1
:1036F000C181FF42FEE3D3E2FF41FF40FF83E48349
:10370000D0C1D921D922D942D922D942D942D942CC
:10371000D922D941D941E100D061F584D2E1D1C1AA
:10372000E203D921E122E121E122D922D942D94281
:10373000D942D942D942D942D942D942D942D942B1
:10374000D942D942D942D942D942D942D942D942A1
:10375000D942D942D942D942D942D942D942D94291
:10376000D942D942D942D942D942D942D942D94281
:10377000D942D942D942D942D942D942D942D94271
:10378000D942D942D942D942D942D942D942D94261
:10379000D942D942D942D922D0C1DA82FF03FF608F
:1037A000EDA3C1A2CBA3EE23FF61D3E2FF42FEE370
:1037B000D281D8C2E122E142D922D942D922D942CA
:1037C000D942D942D922D942D941D941D901DB04C0
:1037D000D101D941D941E121E122E121D922E122DE
:1037E000D922D942D942D942D942D942D942D94221
:1037F000D942D942D942D942D942D942D942D942F1
:10380000D942D942D942D942D942D942D942D942E0
:10381000D942D942D942D942D942D942D942D942D0
:10382000D942D942D942D942D942D942D942D942C0
:10383000D942D942D942D942D942D942D942D942B0
:10384000D942D942D942D941D941D941D942D8E204
:10385000C961EDE3FF40FF42FF42CB02F684CBE2B9
:10386000FD86C960D902D941D941D941D922D9228D
:10387000D942D942D942D942D942D922D922D941B1
:10388000D941E101E122D941E121D941E122E121FE
:10389000D922E122D922D942D942D942D942D942A8
:1038A000D942D942D942D942D942D942D942D94240
:1038B000D942D942D942D942D942D942D942D94230
:1038C000D942D942D942D942D942D942D942D94220
:1038D000D942D942D942D942D942D942D942D94210
:1038E000D942D942D942D942D942D942D942D94200
:1038F000D942D942D942D942D942D942D942D942F0
:10390000D942D942E0A2DBA1FEA4E5C2FF40FFC23A
:10391000CA83DC04DB61E0C2E123D942D922D92287
:10392000D942D942D942D942D942D942D942D942BF
:10393000D922D942D941D941D941D922E121E12223
:10394000E122E121D922E122D922D942D942D94228
:10395000D942D942D942D942D942D942D942D9428F
:10396000D942D942D942D942D942D942D942D9427F
:10397000D942D942D942D942D942D942D942D9426F
:10398000D942D942D942D942D942D942D942D9425F
:10399000D942D942D942D942D942D942D942D9424F
:1039A000D942D942D942D942D942D942D942D9423F
:1039B000D942D942D942D922C8E1F643D4A3E52459
:1039C000DCE4DC43DC63D4C2F5A4D0E1E142D942BB
:1039D000D942D942D942D942D942D942D942D9420F
:1039E000D942D942D922D942D941D921D921D94163
:1039F000E121E122E121E121D922E122D922D942AA
:103A0000D942D942D942D942D942D942D942D942DE
:103A1000D942D942D942D942D942D942D942D942CE
:103A2000D942D942D942D942D942D942D942D942BE
:103A3000D942D942D942D942D942D942D942D942AE
:103A4000D942D942D942D942D942D942D942D9429E
:103A5000D942D942D942D942D942D942D942D9428E
:103A6000D942D942D942D942D942D922D161FF4360
:103A7000FF00FFA1E542ED43FFC1FF40FF23D1223C
:103A8000D921E122D942D942D942D942D942D94297
:103A9000D942D942D942D942D922D941D920DA4290
:103AA000DA02E121E121E122E121E121D922E12231
:103AB000D922D942D942D942D942D942D942D9424E
:103AC000D942D942D942D942D942D942D942D9421E
:103AD000D942D942D942D942D942D942D942D9420E
:103AE000D942D942D942D942D942D942D942D942FE
:103AF000D942D942D942D942D942D942D942D942EE
:103B0000D942D942D942D942D942D942D942D942DD
:103B1000D942D942D942D942D942D942D941D8E130
:103B2000E382FF80FF03D342D0C2D0C2DB83FF42D7
:103B3000FFA0DB62D8E2D941D922D942D942D94289
:103B4000D942D942D942D942D942D922D942D141C6
:103B5000C8A1E463E403D0A0D121D941E122E1214D
:103B6000D922E122D922D942D942D942D942D942D5
:103B7000D942D942D942D942D942D942D942D9426D
:103B8000D942D942D942D942D942D942D942D9425D
:103B9000D942D942D942D942D942D942D942D9424D
:103BA000D942D942D942D942D942D942D942D9423D
:103BB000D942D942D942D942D942D942D942D9422D
:103BC000D942D942D942D942D942D942D942D9421D
:103BD000D941D8A2F643F623C9C1D8C1D941D941A8
:103BE000D8C2C9C1F683EDE4D8E0D941D922D9427F
:103BF000D942D942D942D942D922D922D922D9226D
:103C0000D901DB84FEA5FEE2F6E1FEA6DB43D90284
:103C1000E121E121D922E122D922D942D942D94256
:103C2000D942D942D942D942D942D942D942D942BC
:103C3000D942D942D942D942D942D942D942D942AC
:103C4000D942D942D942D942D942D942D942D9429C
:103C5000D942D942D942D942D942D942D942D9428C
:103C6000D942D942D942D942D942D942D942D9427C
:103C7000D942D942D942D942D942D942D942D9426C
:103C8000D942D942D922D1A2ECC4C8E0D922D94123
:103C9000D942D942D942E101C900ECC5D162D9214A
:103CA000D922D942D942D942D942D922D942D9427C
:103CB000D942D922D922D0E1D321FFC0FF81CAA1A4
:103CC000D8E1E121D922D941D922E122D922D94210
:103CD000D942D942D942D942D942D942D942D9420C
:103CE000D942D942D942D942D942D942D942D942FC
:103CF000D942D942D942D942D942D942D942D942EC
:103D0000D942D942D942D942D942D942D942D942DB
:103D1000D942D942D942D942D942D942D942D942CB
:103D2000D942D942D942D942D942D942D942D942BB
:103D3000D942D942D942D942D942D941D8E1D9212F
:103D4000D942D942D941D941D941D942E102D1011F
:103D5000D962D942D922D942D942D942D922D922CB
:103D6000D922D922D922D922D922D8E1E463E58304
:103D7000ED84DBE3D8E1D941E122E121E122E12236
:103D8000D922D942D942D942D942D942D942D9427B
:103D9000D942D942D942D942D942D942D942D9424B
:103DA000D942D942D942D942D942D942D942D9423B
:103DB000D942D942D942D942D942D942D942D9422B
:103DC000D942D942D942D942D942D942D942D9421B
:103DD000D942D942D942D942D942D942D942D9420B
:103DE000D942D942D942D942D942D942D941D942FC
:103DF000D941D942D941D942D942D942D942D942ED
:103E0000D941D922D941D942D922D942D942D9223C
:103E1000D942D942E122E122D901D942D922D9217C
:103E2000E283D0C1D0C1DA83D921E121D922D9419D
:103E3000D922E122D922D942D942D942D942D94202
:103E4000D942D942D942D942D942D942D942D9429A
:103E5000D942D942D942D942D942D942D942D9428A
:103E6000D942D942D942D942D942D942D942D9427A
:103E7000D942D942D942D942D942D942D942D9426A
:103E8000D942D942D942D942D942D942D942D9425A
:103E9000D942D942D942D942D942D942D942D9424A
:103EA000D942D942D941D941D941D941D941D94140
:103EB000D941D941D942D941D941D922D942D9424E
:103EC000D942D922E121D941D0E2D8A2DBE5D121E2
:103ED000D942D942D921D922D942D921D942D9228C
:103EE000E121E121D922E122D922D942D942D94284
:103EF000D942D942D942D942D942D942D942D942EA
:103F0000D942D942D942D942D942D942D942D942D9
:103F1000D942D942D942D942D942D942D942D942C9
:103F2000D942D942D942D942D942D942D942D942B9
:103F3000D942D942D942D942D942D942D942D942A9
:103F4000D942D942D942D942D942D942D942D94299
:103F5000D942D942D942D942D941D941D941D9418D
:103F6000D941D941D941D941D941D941D941D922A0
:103F7000D942D942D922D942D902DAE3ED44DBA2AF
:103F8000FEA4D062D921D922D942D941D941D942FE
:103F9000D941D921E121E121D922E122D922D942F5
:103FA000D942D942D942D942D942D942D942D94239
:103FB000D942D942D942D942D942D942D942D94229
:103FC000D942D942D942D942D942D942D942D94219
:103FD000D942D942D942D942D942D942D942D94209
:103FE000D942D942D942D942D942D942D942D942F9
:103FF000D942D942D942D942D942D942D942D942E9
:10400000D942D942D942D942D942D942D942D942D8
:10401000D942D942D942D942D942D942D942D942C8
:10402000D942D922D942D942D942D922D941D0A1A3
:10403000ED23FF80F6E1E443DA02D921D942D92207
:10404000D922D922D922D942E122E122D942D94228
:10405000D942D942D942D942D942D942D942D94288
:10406000D942D942D942D942D942D942D942D94278
:10407000D942D942D942D942D942D942D942D94268
:10408000D942D942D942D942D942D942D942D94258
:10409000D942D942D942D942D942D942D942D94248
:1040A000D942D942D942D942D942D942D942D94238
:1040B000D942D942D942D942D942D942D942D94228
:1040C000D942D942D942D942D942D942D942D94218
:1040D000D942D942D942D922D942D942D942D94228
:1040E000D922D142FEC3FF61FE82E422E223D9211C
:1040F000D922D942D942D942D942D942D922D92248
:10410000D942D942D942D942D942D942D942D942D7
:10411000D942D942D942D942D942D942D942D942C7
:10412000D942D942D942D942D942D942D942D942B7
:10413000D942D942D942D942D942D942D942D942A7
:10414000D942D942D942D942D942D942D942D94297
:10415000D942D942D942D942D942D942D942D94287
:10416000D942D942D942D942D942D942D942D94277
:10417000D942D942D942D942D942D942D942D94267
:10418000D942D942D942D942D942D922D942D94277
:10419000D942D922D902E344D2E3DB81EDC4D0A1D4
:1041A000D921D942D922D942D942D942D942D92298
:1041B000D942D942D922D942D942D942D942D94247
:1041C000D942D942D942D942D942D942D942D94217
:1041D000D942D942D942D942D942D942D942D94207
:1041E000D942D942D942D942D942D942D942D942F7
:1041F000D942D942D942D942D942D942D942D942E7
:10420000D942D942D942D942D942D942D942D942D6
:10421000D942D942D942D942D942D942D942D942C6
:10422000D942D942D942D942D942D942D942D942B6
:10423000D942D942D942D942D942D942D942D922C6
:10424000D942D942D922D942D942E101E0E2D10191
:10425000E324D901D941D922D942D942D942D942FC
:10426000D942D942D922D922D942D942D942D942B6
:10427000D942D942D942D942D942D942D942D94266
:10428000D942D942D942D942D942D942D942D94256
:10429000D942D942D942D942D942D942D942D94246
:1042A000D942D942D942D942D942D942D942D94236
:1042B000D942D942D942D942D942D942D942D94226
:1042C000D942D942D942D942D942D942D942D94216
:1042D000D942D942D942D942D942D942D942D94206
:1042E000D942D942D942D942D942D942D942D942F6
:1042F000D942D922D942D942D942D922D942D94226
:10430000D941E122D901E121D941D922D922D94289
:10431000D942D942D942D942D942D942D942D942C5
:10432000D942D942D942D942D942D942D942D942B5
:10433000D942D942D942D942D942D942D942D942A5
:10434000D942D942D942D942D942D942D942D94295
:10435000D942D942D942D942D942D942D942D94285
:10436000D942D942D942D942D942D942D942D94275
:10437000D942D942D942D942D942D942D942D94265
:10438000D942D942D942D942D942D942D942D94255
:10439000D942D942D942D942D942D942D942D94245
:1043A000D942D942D942D922D942D942D942D94255
:1043B000D942D942D922E122D941D941E121E12290
:1043C000E122D942D942D942D942D942D942D9422D
:1043D000D942D942D942D942D942D942D942D94205
:1043E000D942D942D942D942D942D942D942D942F5
:1043F000D942D942D942D942D942D942D942D942E5
:10440000D942D942D942D942D942D942D942D942D4
:10441000D942D942D942D942D942D942D942D942C4
:10442000D942D942D942D942D942D942D942D942B4
:10443000D942D942D942D942D942D942D942D942A4
:10444000D942D942D942D942D942D942D942D94294
:10445000D942D942D942D942D942D922D942D942A4
:10446000D942D942D942D922D942E122D942D921CD
:10447000D922E122E122D942D942D942D942D942B4
:10448000D942D942D942D942D942D942D942D94254
:10449000D942D942D942D942D942D942D942D94244
:1044A000D942D942D942D942D942D942D942D94234
:1044B000D942D942D942D942D942D942D942D94224
:1044C000D942D942D942D942D942D942D942D94214
:1044D000D942D942D942D942D942D942D942D94204
:1044E000D942D942D942D942D942D942D942D942F4
:1044F000D942D942D942D942D942D942D942D942E4
:10450000D942D942D942D942D942D942D942D922F3
:10451000D942D942D942D942D942D922D922D94203
:10452000D942E121E121D922E122D942D942D9421D
:10453000D942D942D942D942D942D942D942D942A3
:10454000D942D942D942D942D942D942D942D94293
:10455000D942D942D942D942D942D942D942D94283
:10456000D942D942D942D942D942D942D942D94273
:10457000D942D942D942D942D942D942D942D94263
:10458000D942D942D942D942D942D942D942D94253
:10459000D942D942D942D942D942D942D942D94243
:1045A000D942D942D942D942D942D942D942D94233
:1045B000D942D942D942D942D942D942D942D94223
:1045C000D942D922D942D942D942D942D942D94233
:1045D000D922D942D942D941D941E122E122D94255
:1045E000D942D942D942D942D942D942D942D942F3
:1045F000D942D942D942D942D942D942D942D942E3
:10460000D942D942D942D942D942D942D942D942D2
:10461000D942D942D942D942D942D942D942D942C2
:10462000D942D942D942D942D942D942D942D942B2
:10463000D942D942D942D942D942D942D942D942A2
:10464000D942D942D942D942D942D942D942D94292
:10465000D942D942D942D942D942D942D942D94282
:10466000D942D942D942D942D942D942D942D94272
:10467000D942D942D942D922D942D942D942D94282
:10468000D942D942D942D942D922D942D942D92292
:10469000D922D942D942D942D942D942D942D94262
:1046A000D942D942D942D942D942D942D942D94232
:1046B000D942D942D942D942D942D942D942D94222
:1046C000D942D942D942D942D942D942D942D94212
:1046D000D942D942D942D942D942D942D942D94202
:1046E000D942D942D942D942D942D942D942D942F2
:1046F000D942D942D942D942D942D942D942D942E2
:10470000D942D942D942D942D942D942D942D942D1
:10471000D942D942D942D942D942D942D942D942C1
:10472000D942D942D942D942D942D922D942D942D1
:10473000D942D942D942D942D942D942D942D922C1
:10474000D922D942D942D942D942D942D942D942B1
:10475000D942D942D942D942D942D942D942D94281
:10476000D942D942D942D942D942D942D942D94271
:10477000D942D942D942D942D942D942D942D94261
:10478000D942D942D942D942D942D942D942D94251
:10479000D942D942D942D942D942D942D942D94241
:1047A000D942D942D942D942D942D942D942D94231
:1047B000D942D942D942D942D942D942D942D94221
:1047C000D942D942D942D942D942D942D942D94211
:1047D000D942D942D942D942D942D942D942D92221
:1047E000D942D942D942D942D942D942D942D942F1
:1047F000D942D942D942D942D942D942D942D942E1
:10480000D942D942D942D942D942D942D942D942D0
:10481000D942D942D942D942D942D942D942D942C0
:10482000D942D942D942D942D942D942D942D942B0
:10483000D942D942D942D942D942D942D942D942A0
:10484000D942D942D942D942D942D942D942D94290
:10485000D942D942D942D942D942D942D942D94280
:10486000D942D942D942D942D942D942D942D94270
:10487000D942D942D942D942D942D942D942D94260
:10488000D942D942D942D942D942D942D942D94250
:10489000D942D922D942D942D942D942D942D94260
:1048A000D942D942D942D942D942D942D942D94230
:1048B000D942D942D942D942D942D942D942D94220
:1048C000D942D942D942D942D942D942D942D94210
:1048D000D942D942D942D942D942D942D942D94200
:1048E000D942D942D942D942D942D942D942D942F0
:1048F000D942D942D942D942D942D942D942D942E0
:10490000D942D942D942D942D942D942D942D942CF
:10491000D942D942D942D942D942D942D942D942BF
:10492000D942D942D942D942D942D942D942D942AF
:10493000D942D942D942D942D942D942D942D9429F
:10494000D942D942D942D922D942D942D942D942AF
:10495000D942D942D942D942D942D942D942D9427F
:10496000D942D942D942D942D942D942D942D9426F
:10497000D942D942D942D942D942D942D942D9425F
:10498000D942D942D942D942D942D942D942D9424F
:10499000D942D942D942D942D942D942D942D9423F
:1049A000D942D942D942D942D942D942D942D9422F
:1049B000D942D942D942D942D942D942D942D9421F
:1049C000D942D942D942D942D942D942D942D9420F
:1049D000D942D942D942D942D942D942D942D942FF
:1049E000D942D942D942D942D942D942D942D942EF
:1049F000D942D942D942D942D942D922D942D942FF
:104A0000D942D942D942D942D942D942D942D942CE
:104A1000D942D942D942D942D942D942D942D942BE
:104A2000D942D942D942D942D942D942D942D942AE
:104A3000D942D942D942D942D942D942D942D9429E
:104A4000D942D942D942D942D942D942D942D9428E
:104A5000D942D942D942D942D942D942D942D9427E
:104A6000D942D942D942D942D942D942D942D9426E
:104A7000D942D942D942D942D942D942D942D9425E
:104A8000D942D942D942D942D942D942D942D9424E
:104A9000D942D942D942D942D942D942D942D9423E
:104AA000D942D942D942D942D942D942D942D9224E
:104AB000D942D942D942D942D942D942D942D9421E
:104AC000D942D942D942D942D942D942D942D9420E
:104AD000D942D942D942D942D942D942D942D942FE
:104AE000D942D942D942D942D942D942D942D942EE
:104AF000D942D942D942D942D942D942D942D942DE
:104B0000D942D942D942D942D942D942D942D942CD
:104B1000D942D942D942D942D942D942D942D942BD
:104B2000D942D942D942D942D942D942D942D942AD
:104B3000D942D942D942D942D942D942D942D9429D
:104B4000D942D942D942D942D942D942D942D9428D
:104B5000D942D942D942D942D942D942D942D9427D
:104B6000D942D922D942D942D942D942D942D9428D
:104B7000D942D942D942D942D942D942D942D9425D
:104B8000D942D942D942D942D942D942D942D9424D
:104B9000D942D942D942D942D942D942D942D9423D
:104BA000D942D942D942D942D942D942D942D9422D
:104BB000D942D942D942D942D942D942D942D9421D
:104BC000D942D942D942D942D942D942D942D9420D
:104BD000D942D942D942D942D942D942D942D942FD
:104BE000D942D942D942D942D942D942D942D942ED
:104BF000D942D942D942D942D942D942D942D942DD
:104C0000D942D942D942D942D942D942D942D942CC
:104C1000D942D942D942D922D942D942D942D942DC
:104C2000D942D942D942D942D942D942D942D942AC
:104C3000D942D942D942D942D942D942D942D9429C
:104C4000D942D942D942D942D942D942D942D9428C
:104C5000D942D942D942D942D942D942D942D9427C
:104C6000D942D942D942D942D942D942D942D9426C
:104C7000D942D942D942D942D942D942D942D9425C
:104C8000D942D942D942D942D942D942D942D9424C
:104C9000D942D942D942D942D942D942D942D9423C
:104CA000D942D942D942D942D942D942D942D9422C
:104CB000D942D942D942D942D942D942D942D9421C
:104CC000D942D942D942D942D942D922D942D9422C
:104CD000D942D942D942D942D942D942D942D942FC
:104CE000D942D942D942D942D942D942D942D942EC
:104CF000D942D942D942D942D942D942D942D942DC
:104D0000D942D942D942D942D942D942D942D942CB
:104D1000D94290C170A1D942D942D942D942D9428F
:104D2000D942D942D942D942D942D942D942D942AB
:104D3000D942D942D942D942D942D942D942D9429B
:104D4000D942D942D942D942D942D942D942D9428B
:104D5000D942D942D942D942D942D942D942D9427B
:104D6000D942D942D942D942D942D942D942D9426B
:104D7000D942D942D942D942D942D942D942D9227B
:104D8000D942D942D942D942D942D942D942D9424B
:104D9000D942D942D942D942D942D942D942D9423B
:104DA000D942D942D942D942D942D942D942D9422B
:104DB000D942D942D942D942D942D942D942D9421B
:104DC000D942D942D94270A10000D942D942D94230
:104DD000D942D942D942D942D942D942D942D942FB
:104DE000D942D942D942D942D942D942D942D942EB
:104DF000D942D942D942D942D942D942D942D942DB
:104E0000D942D942D942D942D942D942D942D942CA
:104E1000D942D942D942D942D942D942D942D942BA
:104E2000D942D942D942D942D942D942D942D942AA
:104E3000D942D922D942D942D942D942D942D942BA
:104E4000D942D942D942D942D942D942D942D9428A
:104E5000D942D942D942D942D942D942D942D9427A
:104E6000D942D942D942D942D942D942D942D9426A
:104E7000D942D942D942D942D942D942D942D9425A
:104E8000D942D942D942D942D942D942D942D9424A
:104E9000D942D942D942D942D942D942D942D9423A
:104EA000D942D942D942D942D942D942D942D9422A
:104EB000D942D942D942D942D942D942D942D9421A
:104EC000D942D942D942D942D942D942D942D9420A
:104ED000D942D942D942D942D942D942D942D942FA
:104EE000D942D942D942D922D942D942D942D9420A
:104EF000D942D942D942D942D942D942D942D942DA
:104F0000D942D942D942D942D942D942D942D942C9
:104F1000D942D942D942D942D942D942D942D942B9
:104F2000D942D942D942D942D942D942D942D942A9
:104F3000D942D942D942D942D942D942D942D94299
:104F4000D942D942D942D942D942D942D942D94289
:104F5000D942D942D942D942D942D942D942D94279
:104F6000D942D942D942D942D942D942D942D94269
:104F7000D942D942D942D942D942D942D942D94259
:104F8000D942D942D942D942D942D942D942D94249
:104F9000D942D942D942D942D942D922D942D94259
:104FA000D942D942D942D942D942D942D942D94229
:104FB000D942D942D942D942D942D942D942D94219
:104FC000D942D942D942D942D942D942D942D94209
:104FD000D942D942D942D942D942D942D942D942F9
:104FE000D942D942D942D942D942D942D942D942E9
:104FF000D942D942D942D942D942D942D942D942D9
:10500000D942D942D942D942D942D942D942D942C8
:10501000D942D942D942D942D942D942D942D942B8
:10502000D942D942D942D942D942D942D942D942A8
:10503000D942D942D942D942D942D942D942D94298
:10504000D942D942D942D942D942D942D942D922A8
:10505000D942D942D942D942D942D942D942D94278
:10506000D942D942D942D942D942D942D942D94268
:10507000D942D942D942D942D942D942D942D94258
:10508000D942D942D942D942D942D942D942D94248
:10509000D942D942D942D942D942D942D942D94238
:1050A000D942D942D942D942D942D942D942D94228
:1050B000D942D942D942D942D942D942D942D94218
:1050C000D942D942D942D942D942D942D942D94208
:1050D000D942D942D942D942D942D942D942D942F8
:1050E000D942D942D942D942D942D942D942D942E8
:1050F000D942D942D942D942D942D942D942D942D8
:10510000D942D922D942D942D942D942D942D942E7
:10511000D942D942D942D942D942D942D942D942B7
:10512000D942D942D942D942D942D942D942D942A7
:10513000D942D942D942D942D942D942D942D94297
:10514000D942D942D942D942D942D942D942D94287
:10515000D942D942D942D942D942D942D942D94277
:10516000D942D942D942D942D942D942D942D94267
:10517000D942D942D942D942D942D942D942D94257
:10518000D942D942D942D942D942D942D942D94247
:10519000D942D942D942D942D942D942D942D94237
:1051A000D942D942D942D942D942D942D942D94227
:1051B000D942D942D942D922D942D942D942D94237
:1051C000D942D942D942D942D942D942D942D94207
:1051D000D942D942D942D942D942D942D942D942F7
:1051E000D942D942D942D942D942D942D942D942E7
:1051F000D942D942D942D942D942D942D942D942D7
:10520000D942D942D942D942D942D942D942D942C6
:10521000D942D942D942D942D942D942D942D942B6
:10522000D942D942D942D942D942D942D942D942A6
:10523000D942D942D942D942D942D942D942D94296
:10524000D942D942D942D942D942D942D942D94286
:10525000D942D942D942D942D942D942D942D94276
:10526000D942D942D942D942D942D922D942D94286
:10527000D942D942D942D942D942D942D942D94256
:10528000D942D942D942D942D942D942D942D94246
:10529000D942D942D942D942D942D942D942D94236
:1052A000D942D942D942D942D942D942D942D94226
:1052B000D942D942D942D942D942D942D942D94216
:1052C000D942D942D942D942D942D942D942D94206
:1052D000D942D942D942D942D942D942D942D942F6
:1052E000D942D942D942D942D942D942D942D942E6
:1052F000D942D942D942D942D942D942D942D942D6
:10530000D942D942D942D942D942D942D942D942C5
:10531000D942D942D942D942D942D942D942D922D5
:10532000D942D942D942D942D942D942D942D942A5
:10533000D942D942D942D942D942D942D942D94295
:10534000D942D942D942D942D942D942D942D94285
:10535000D942D942D942D942D942D942D942D94275
:10536000D942D942D942D942D942D942D942D94265
:10537000D942D942D942D942D942D942D942D94255
:10538000D942D942D942D942D942D942D942D94245
:10539000D942D942D942D942D942D942D942D94235
:1053A000D942D942D942D942D942D942D942D94225
:1053B000D942D942D942D942D942D942D942D94215
:1053C000D942D942D942D942D942D942D942D94205
:1053D000D942D922D942D942D942D942D942D94215
:1053E000D942D942D942D942D942D942D942D942E5
:1053F000D942D942D942D942D942D942D942D942D5
:10540000D942D942D942D942D942D942D942D942C4
:10541000D942D942D942D942D942D942D942D942B4
:10542000D942D942D942D942D942D942D942D942A4
:10543000D942D942D942D942D942D942D942D94294
:10544000D942D942D942D942D942D942D942D94284
:10545000D942D942D942D942D942D942D942D94274
:10546000D942D942D942D942D942D942D942D94264
:10547000D942D942D942D942D942D942D942D94254
:10548000D942D942D942D922D942D942D942D94264
:10549000D942D942D942D942D942D942D942D94234
:1054A000D942D942D942D942D942D942D942D94224
:1054B000D942D942D942D942D942D942D942D94214
:1054C000D942D942D942D942D942D942D942D94204
:1054D000D942D942D942D942D942D942D942D942F4
:1054E000D942D942D942D942D942D942D942D942E4
:1054F000D942D942D942D942D942D942D942D942D4
:10550000D942D942D942D942D942D942D942D942C3
:10551000D942D942D942D942D942D942D942D942B3
:10552000D942D942D942D942D942D942D942D942A3
:10553000D942D942D942D942D942D922D942D942B3
:10554000D942D942D942D942D942D942D942D94283
:10555000D942D942D942D942D942D942D942D94273
:10556000D942D942D942D942D942D942D942D94263
:10557000D942D942D942D942D942D942D942D94253
:10558000D942D942D942D942D942D942D942D94243
:10559000D942D942D942D942D942D942D942D94233
:1055A000D942D942D942D942D942D942D942D94223
:1055B000D942D942D942D942D942D942D942D94213
:1055C000D942D942D942D942D942D942D942D94203
:1055D000D942D942D942D942D942D942D942D942F3
:1055E000D942D942D942D942D942D942D942D92203
:1055F000D942D942D942D942D942D942D942D942D3
:10560000D942D942D942D942D942D942D942D942C2
:10561000D942D942D942D942D942D942D942D942B2
:10562000D942D942D942D942D942D942D942D942A2
:10563000D942D942D942D942D942D942D942D94292
:10564000D942D942D942D942D942D942D942D94282
:10565000D942D942D942D942D942D942D942D94272
:10566000D942D942D942D942D942D942D942D94262
:10567000D942D942D942D942D942D942D942D94252
:10568000D942D942D942D942D942D942D942D94242
:10569000D942D942D942D942D942D942D942D94232
:1056A000D942D922D942D942D942D942D942D94242
:1056B000D942D942D942D942D942D942D942D94212
:1056C000D942D942D942D942D942D942D942D94202
:1056D000D942D942D942D942D942D942D942D942F2
:1056E000D942D942D942D942D942D942D942D942E2
:1056F000D942D942D942D942D942D942D942D942D2
:10570000D942D942D942D942D942D942D942D942C1
:10571000D942D942D942D942D942D942D942D942B1
:10572000D942D942D942D942D942D942D942D942A1
:10573000D942D942D942D942D942D942D942D94291
:10574000D942D942D942D942D942D942D942D94281
:10575000D942D942D942D922D942D942D942D94291
:10576000D942D942D942D942D942D942D942D94261
:10577000D942D942D942D942D942D942D942D94251
:10578000D942D942D942D942D942D942D942D94241
:10579000D942D942D942D942D942D942D942D94231
:1057A000D942D942D942D942D942D942D942D94221
:1057B000D942D942D942D942D942D942D942D94211
:1057C000D942D942D942D942D942D942D942D94201
:1057D000D942D942D942D942D942D942D942D942F1
:1057E00010010050003C000000000000000000001C
:1057F00000000000000000000000000000000000A9
:105800000000000000000000000000000000000098
:105810000000181C000000000000000100008000D3
:105820000000000000040000100000000000001054
:10583000000304000000000000401004020000000B
:105840000000008008040080000000000010100428
:1058500000400000000004000000002000000000E4
:1058600000100000021000000000000800000C08FA
:105870000000000000000000000400000000200004
:1058800000000000000000004404080000020000C6
:1058900000000A08066000010000000082907E7E81
:1058A0000018000000000020FC3F80008000000184
:1058B0000403C001A06000000001020307F0408063
:1058C0000000000000863FFE300040000002000C97
:1058D000F007100000000002000CE0039800000038
:1058E0000000001CCFF1980000000000001CCFF168
:1058F000980020000000001CC7E398002000000072
:10590000001CE0079C0020000000003CFE7C9C0086
:1059100000000004003CFE619C0000000004003C0C
:10592000F8C79C0000000000001CF1CF1C00000024
:105930000000001CF3CF180020000000002CF3CF63
:10594000180020000000001C73CF38002000000069
:10595000000E780E380000000002000E3C3C78007B
:1059600000000000200707F0F000400000000003E6
:10597000C0C1E100400000010043FC0FA00800008E
:1059800000000000FF3F80008000000080007E3F9C
:1059900000000000000002000630080100000000C6
:1059A0004004080000000000000022020000000087
:1059B00000000000000000000004000000001000D3
:1059C00000000008000000000800000004100000B3
:1059D00000000400000000200000000002000000A1
:1059E00000400000000001000000008000000000F6
:1059F0000040000001000000000000200000040042
:105A0000000000000008000010000000000000037B
:105A100000004000000000000000600600000000E0
:105A20000000000000000000000000000000000076
:105A30000000000000000000000000000000100155
:105A400000500037000000000000000000000000CF
:105A50000000000000000000000000000000000046
:105A60000000000000000000000000000000000036
:105A70000000000000000000000000000000000026
:105A80000000000000000000000000000000800096
:105A90000000000000000000000000000000000006
:105AA0000000000000000000000000000580000071
:105AB000000000000000186000000000000000006E
:105AC000030000000000000000005048000000003B
:105AD00000000000D7280000000000000000D0688F
